{
  "address": "0x7C93990c674e8fac0DE71C8e38eA3efF430E2eF3",
  "abi": [
    {
      "inputs": [
        {
          "internalType": "address",
          "name": "vrfCoordinatorV2",
          "type": "address"
        },
        {
          "internalType": "uint256",
          "name": "entranceFee",
          "type": "uint256"
        },
        {
          "internalType": "bytes32",
          "name": "gasLane",
          "type": "bytes32"
        },
        {
          "internalType": "uint64",
          "name": "subscriptionId",
          "type": "uint64"
        },
        {
          "internalType": "uint32",
          "name": "callbackGasLimit",
          "type": "uint32"
        },
        {
          "internalType": "uint256",
          "name": "interval",
          "type": "uint256"
        }
      ],
      "stateMutability": "nonpayable",
      "type": "constructor"
    },
    {
      "inputs": [],
      "name": "Lottery__NotEnoughEth",
      "type": "error"
    },
    {
      "inputs": [],
      "name": "Lottery__NotOpen",
      "type": "error"
    },
    {
      "inputs": [],
      "name": "Lottery__TransferFailed",
      "type": "error"
    },
    {
      "inputs": [
        {
          "internalType": "uint256",
          "name": "currentBalance",
          "type": "uint256"
        },
        {
          "internalType": "uint256",
          "name": "numberOfPlayers",
          "type": "uint256"
        },
        {
          "internalType": "uint256",
          "name": "lotteryState",
          "type": "uint256"
        }
      ],
      "name": "Lottery__UpkeepNotNeeded",
      "type": "error"
    },
    {
      "inputs": [
        {
          "internalType": "address",
          "name": "have",
          "type": "address"
        },
        {
          "internalType": "address",
          "name": "want",
          "type": "address"
        }
      ],
      "name": "OnlyCoordinatorCanFulfill",
      "type": "error"
    },
    {
      "anonymous": false,
      "inputs": [
        {
          "indexed": true,
          "internalType": "address",
          "name": "player",
          "type": "address"
        }
      ],
      "name": "LotteryEnter",
      "type": "event"
    },
    {
      "anonymous": false,
      "inputs": [
        {
          "indexed": true,
          "internalType": "address",
          "name": "winner",
          "type": "address"
        }
      ],
      "name": "WinnerPicked",
      "type": "event"
    },
    {
      "anonymous": false,
      "inputs": [
        {
          "indexed": true,
          "internalType": "uint256",
          "name": "requestId",
          "type": "uint256"
        }
      ],
      "name": "WinnerRequest",
      "type": "event"
    },
    {
      "inputs": [
        {
          "internalType": "bytes",
          "name": "",
          "type": "bytes"
        }
      ],
      "name": "checkUpkeep",
      "outputs": [
        {
          "internalType": "bool",
          "name": "upkeepNeeded",
          "type": "bool"
        },
        {
          "internalType": "bytes",
          "name": "",
          "type": "bytes"
        }
      ],
      "stateMutability": "nonpayable",
      "type": "function"
    },
    {
      "inputs": [],
      "name": "enterLottery",
      "outputs": [],
      "stateMutability": "payable",
      "type": "function"
    },
    {
      "inputs": [],
      "name": "getEntranceFee",
      "outputs": [
        {
          "internalType": "uint256",
          "name": "",
          "type": "uint256"
        }
      ],
      "stateMutability": "view",
      "type": "function"
    },
    {
      "inputs": [],
      "name": "getInterval",
      "outputs": [
        {
          "internalType": "uint256",
          "name": "",
          "type": "uint256"
        }
      ],
      "stateMutability": "view",
      "type": "function"
    },
    {
      "inputs": [],
      "name": "getLatestTimeStamp",
      "outputs": [
        {
          "internalType": "uint256",
          "name": "",
          "type": "uint256"
        }
      ],
      "stateMutability": "view",
      "type": "function"
    },
    {
      "inputs": [],
      "name": "getLotteryState",
      "outputs": [
        {
          "internalType": "enum Lottery.LotteryState",
          "name": "",
          "type": "uint8"
        }
      ],
      "stateMutability": "view",
      "type": "function"
    },
    {
      "inputs": [],
      "name": "getNumOfPlayers",
      "outputs": [
        {
          "internalType": "uint256",
          "name": "",
          "type": "uint256"
        }
      ],
      "stateMutability": "view",
      "type": "function"
    },
    {
      "inputs": [
        {
          "internalType": "uint256",
          "name": "index",
          "type": "uint256"
        }
      ],
      "name": "getPlayer",
      "outputs": [
        {
          "internalType": "address",
          "name": "",
          "type": "address"
        }
      ],
      "stateMutability": "view",
      "type": "function"
    },
    {
      "inputs": [],
      "name": "getRecentWinner",
      "outputs": [
        {
          "internalType": "address",
          "name": "",
          "type": "address"
        }
      ],
      "stateMutability": "view",
      "type": "function"
    },
    {
      "inputs": [
        {
          "internalType": "bytes",
          "name": "",
          "type": "bytes"
        }
      ],
      "name": "performUpkeep",
      "outputs": [],
      "stateMutability": "nonpayable",
      "type": "function"
    },
    {
      "inputs": [
        {
          "internalType": "uint256",
          "name": "requestId",
          "type": "uint256"
        },
        {
          "internalType": "uint256[]",
          "name": "randomWords",
          "type": "uint256[]"
        }
      ],
      "name": "rawFulfillRandomWords",
      "outputs": [],
      "stateMutability": "nonpayable",
      "type": "function"
    }
  ],
  "transactionHash": "0x8c4342407603e61ccbef66491621060898a26bc39a4a4a230057fef48cf86764",
  "args": [
    "0x2Ca8E0C643bDe4C2E08ab1fA0da3401AdAD7734D",
    "10000000000000000",
    "0x79d3d8832d904592c0bf9818b621522c988bb8b0c05cdc3b15aea1b6e8db0c15",
    "7309",
    "500000",
    "30"
  ],
  "numDeployments": 1,
  "solcInputHash": "5c7d690352f6004c9e6ce1b50cc3094d",
  "bytecode": "0x6101606040523480156200001257600080fd5b50604051620017a1380380620017a18339818101604052810190620000389190620001ad565b858073ffffffffffffffffffffffffffffffffffffffff1660808173ffffffffffffffffffffffffffffffffffffffff1660601b81525050508460a081815250508573ffffffffffffffffffffffffffffffffffffffff1660e08173ffffffffffffffffffffffffffffffffffffffff1660601b815250508361010081815250508267ffffffffffffffff166101208167ffffffffffffffff1660c01b815250508163ffffffff166101408163ffffffff1660e01b815250506000600160146101000a81548160ff021916908360018111156200011a5762000119620002b5565b5b0217905550426002819055508060c081815250505050505050506200036b565b6000815190506200014b81620002e9565b92915050565b600081519050620001628162000303565b92915050565b60008151905062000179816200031d565b92915050565b600081519050620001908162000337565b92915050565b600081519050620001a78162000351565b92915050565b60008060008060008060c08789031215620001cd57620001cc620002e4565b5b6000620001dd89828a016200013a565b9650506020620001f089828a0162000168565b95505060406200020389828a0162000151565b94505060606200021689828a0162000196565b93505060806200022989828a016200017f565b92505060a06200023c89828a0162000168565b9150509295509295509295565b6000620002568262000267565b9050919050565b6000819050919050565b600073ffffffffffffffffffffffffffffffffffffffff82169050919050565b6000819050919050565b600063ffffffff82169050919050565b600067ffffffffffffffff82169050919050565b7f4e487b7100000000000000000000000000000000000000000000000000000000600052602160045260246000fd5b600080fd5b620002f48162000249565b81146200030057600080fd5b50565b6200030e816200025d565b81146200031a57600080fd5b50565b620003288162000287565b81146200033457600080fd5b50565b620003428162000291565b81146200034e57600080fd5b50565b6200035c81620002a1565b81146200036857600080fd5b50565b60805160601c60a05160c05160e05160601c610100516101205160c01c6101405160e01c6113ba620003e760003960006104a3015260006104800152600061045f015260006104230152600081816105c0015261066901526000818161027e015261068f0152600081816102a401526102f801526113ba6000f3fe60806040526004361061009c5760003560e01c8063565429de11610064578063565429de146101745780636b68c03c1461019f5780636e04ff0d146101ca57806391ad27b414610208578063c1af578514610233578063e55ae4e81461023d5761009c565b806309bc33a7146100a15780631fe543e3146100cc578063320229eb146100f55780634585e33b14610120578063473f1ddc14610149575b600080fd5b3480156100ad57600080fd5b506100b661027a565b6040516100c39190610fc0565b60405180910390f35b3480156100d857600080fd5b506100f360048036038101906100ee9190610d99565b6102a2565b005b34801561010157600080fd5b5061010a610362565b6040516101179190610fc0565b60405180910390f35b34801561012c57600080fd5b5061014760048036038101906101429190610ca9565b61036c565b005b34801561015557600080fd5b5061015e61056b565b60405161016b9190610ede565b60405180910390f35b34801561018057600080fd5b50610189610595565b6040516101969190610fc0565b60405180910390f35b3480156101ab57600080fd5b506101b46105a1565b6040516101c19190610fa5565b60405180910390f35b3480156101d657600080fd5b506101f160048036038101906101ec9190610cf6565b6105b8565b6040516101ff929190610f22565b60405180910390f35b34801561021457600080fd5b5061021d610665565b60405161022a9190610fc0565b60405180910390f35b61023b61068d565b005b34801561024957600080fd5b50610264600480360381019061025f9190610d3f565b6107fc565b6040516102719190610ede565b60405180910390f35b60007f0000000000000000000000000000000000000000000000000000000000000000905090565b7f000000000000000000000000000000000000000000000000000000000000000073ffffffffffffffffffffffffffffffffffffffff163373ffffffffffffffffffffffffffffffffffffffff161461035457337f00000000000000000000000000000000000000000000000000000000000000006040517f1cf993f400000000000000000000000000000000000000000000000000000000815260040161034b929190610ef9565b60405180910390fd5b61035e8282610843565b5050565b6000600254905090565b6000610386604051806020016040528060008152506105b8565b509050806103f55747600080549050600160149054906101000a900460ff1660018111156103b7576103b661129a565b5b6040517f6e195f250000000000000000000000000000000000000000000000000000000081526004016103ec93929190610fdb565b60405180910390fd5b60018060146101000a81548160ff0219169083600181111561041a5761041961129a565b5b021790555060007f000000000000000000000000000000000000000000000000000000000000000073ffffffffffffffffffffffffffffffffffffffff16635d3b1d307f00000000000000000000000000000000000000000000000000000000000000007f000000000000000000000000000000000000000000000000000000000000000060037f000000000000000000000000000000000000000000000000000000000000000060016040518663ffffffff1660e01b81526004016104e4959493929190610f52565b602060405180830381600087803b1580156104fe57600080fd5b505af1158015610512573d6000803e3d6000fd5b505050506040513d601f19601f820116820180604052508101906105369190610d6c565b9050807ff738b9c662f5b069205fe54306049087dcc215dd4ae7ea919347040c3817634d60405160405180910390a250505050565b6000600160009054906101000a900473ffffffffffffffffffffffffffffffffffffffff16905090565b60008080549050905090565b6000600160149054906101000a900460ff16905090565b6000606060007f0000000000000000000000000000000000000000000000000000000000000000600254426105ed91906110bb565b119050600080600080549050119050600080471190506000600160149054906101000a900460ff1660018111156106275761062661129a565b5b6000600181111561063b5761063a61129a565b5b1490508380156106485750825b80156106515750815b801561065a5750805b955050505050915091565b60007f0000000000000000000000000000000000000000000000000000000000000000905090565b7f00000000000000000000000000000000000000000000000000000000000000003410156106e7576040517f0b531f8800000000000000000000000000000000000000000000000000000000815260040160405180910390fd5b600060018111156106fb576106fa61129a565b5b600160149054906101000a900460ff16600181111561071d5761071c61129a565b5b14610754576040517fe76be6fc00000000000000000000000000000000000000000000000000000000815260040160405180910390fd5b6000339080600181540180825580915050600190039060005260206000200160009091909190916101000a81548173ffffffffffffffffffffffffffffffffffffffff021916908373ffffffffffffffffffffffffffffffffffffffff1602179055503373ffffffffffffffffffffffffffffffffffffffff167f1d64fb5ba9f2548c5b98468d58f25b87b9e866afee0122e92d9fe722bf85076c60405160405180910390a2565b6000808281548110610811576108106112c9565b5b9060005260206000200160009054906101000a900473ffffffffffffffffffffffffffffffffffffffff169050919050565b600080805490508260008151811061085e5761085d6112c9565b5b6020026020010151610870919061120b565b90506000808281548110610887576108866112c9565b5b9060005260206000200160009054906101000a900473ffffffffffffffffffffffffffffffffffffffff16905080600160006101000a81548173ffffffffffffffffffffffffffffffffffffffff021916908373ffffffffffffffffffffffffffffffffffffffff16021790555060008173ffffffffffffffffffffffffffffffffffffffff164760405161091b90610ec9565b60006040518083038185875af1925050503d8060008114610958576040519150601f19603f3d011682016040523d82523d6000602084013e61095d565b606091505b5050905080610998576040517f1c94012000000000000000000000000000000000000000000000000000000000815260040160405180910390fd5b600067ffffffffffffffff8111156109b3576109b26112f8565b5b6040519080825280602002602001820160405280156109e15781602001602082028036833780820191505090505b50600090805190602001906109f7929190610a74565b50426002819055506000600160146101000a81548160ff02191690836001811115610a2557610a2461129a565b5b02179055508173ffffffffffffffffffffffffffffffffffffffff167f5b690ec4a06fe979403046eaeea5b3ce38524683c3001f662c8b5a829632f7df60405160405180910390a25050505050565b828054828255906000526020600020908101928215610aed579160200282015b82811115610aec5782518260006101000a81548173ffffffffffffffffffffffffffffffffffffffff021916908373ffffffffffffffffffffffffffffffffffffffff16021790555091602001919060010190610a94565b5b509050610afa9190610afe565b5090565b5b80821115610b17576000816000905550600101610aff565b5090565b6000610b2e610b2984611037565b611012565b90508083825260208201905082856020860282011115610b5157610b50611331565b5b60005b85811015610b815781610b678882610c7f565b845260208401935060208301925050600181019050610b54565b5050509392505050565b6000610b9e610b9984611063565b611012565b905082815260208101848484011115610bba57610bb9611336565b5b610bc5848285611198565b509392505050565b600082601f830112610be257610be161132c565b5b8135610bf2848260208601610b1b565b91505092915050565b60008083601f840112610c1157610c1061132c565b5b8235905067ffffffffffffffff811115610c2e57610c2d611327565b5b602083019150836001820283011115610c4a57610c49611331565b5b9250929050565b600082601f830112610c6657610c6561132c565b5b8135610c76848260208601610b8b565b91505092915050565b600081359050610c8e8161136d565b92915050565b600081519050610ca38161136d565b92915050565b60008060208385031215610cc057610cbf611340565b5b600083013567ffffffffffffffff811115610cde57610cdd61133b565b5b610cea85828601610bfb565b92509250509250929050565b600060208284031215610d0c57610d0b611340565b5b600082013567ffffffffffffffff811115610d2a57610d2961133b565b5b610d3684828501610c51565b91505092915050565b600060208284031215610d5557610d54611340565b5b6000610d6384828501610c7f565b91505092915050565b600060208284031215610d8257610d81611340565b5b6000610d9084828501610c94565b91505092915050565b60008060408385031215610db057610daf611340565b5b6000610dbe85828601610c7f565b925050602083013567ffffffffffffffff811115610ddf57610dde61133b565b5b610deb85828601610bcd565b9150509250929050565b610dfe816110ef565b82525050565b610e0d81611101565b82525050565b610e1c8161110d565b82525050565b6000610e2d82611094565b610e37818561109f565b9350610e478185602086016111a7565b610e5081611345565b840191505092915050565b610e6481611186565b82525050565b6000610e776000836110b0565b9150610e8282611356565b600082019050919050565b610e968161112a565b82525050565b610ea581611158565b82525050565b610eb481611162565b82525050565b610ec381611172565b82525050565b6000610ed482610e6a565b9150819050919050565b6000602082019050610ef36000830184610df5565b92915050565b6000604082019050610f0e6000830185610df5565b610f1b6020830184610df5565b9392505050565b6000604082019050610f376000830185610e04565b8181036020830152610f498184610e22565b90509392505050565b600060a082019050610f676000830188610e13565b610f746020830187610eba565b610f816040830186610e8d565b610f8e6060830185610eab565b610f9b6080830184610eab565b9695505050505050565b6000602082019050610fba6000830184610e5b565b92915050565b6000602082019050610fd56000830184610e9c565b92915050565b6000606082019050610ff06000830186610e9c565b610ffd6020830185610e9c565b61100a6040830184610e9c565b949350505050565b600061101c61102d565b905061102882826111da565b919050565b6000604051905090565b600067ffffffffffffffff821115611052576110516112f8565b5b602082029050602081019050919050565b600067ffffffffffffffff82111561107e5761107d6112f8565b5b61108782611345565b9050602081019050919050565b600081519050919050565b600082825260208201905092915050565b600081905092915050565b60006110c682611158565b91506110d183611158565b9250828210156110e4576110e361123c565b5b828203905092915050565b60006110fa82611138565b9050919050565b60008115159050919050565b6000819050919050565b600081905061112582611359565b919050565b600061ffff82169050919050565b600073ffffffffffffffffffffffffffffffffffffffff82169050919050565b6000819050919050565b600063ffffffff82169050919050565b600067ffffffffffffffff82169050919050565b600061119182611117565b9050919050565b82818337600083830152505050565b60005b838110156111c55780820151818401526020810190506111aa565b838111156111d4576000848401525b50505050565b6111e382611345565b810181811067ffffffffffffffff82111715611202576112016112f8565b5b80604052505050565b600061121682611158565b915061122183611158565b9250826112315761123061126b565b5b828206905092915050565b7f4e487b7100000000000000000000000000000000000000000000000000000000600052601160045260246000fd5b7f4e487b7100000000000000000000000000000000000000000000000000000000600052601260045260246000fd5b7f4e487b7100000000000000000000000000000000000000000000000000000000600052602160045260246000fd5b7f4e487b7100000000000000000000000000000000000000000000000000000000600052603260045260246000fd5b7f4e487b7100000000000000000000000000000000000000000000000000000000600052604160045260246000fd5b600080fd5b600080fd5b600080fd5b600080fd5b600080fd5b600080fd5b6000601f19601f8301169050919050565b50565b6002811061136a5761136961129a565b5b50565b61137681611158565b811461138157600080fd5b5056fea2646970667358221220834f910671503ab2338288d1cb2344689efe851d88785b7d5fb1404862f2337564736f6c63430008070033",
  "devdoc": {
    "kind": "dev",
    "methods": {
      "checkUpkeep(bytes)": {
        "details": "checkUpkeep should check if it is time to performUpkeep 1. time passed 2. we have at least one player 3. we have money in our contract 4. lottery is in open state visibility is external by default but we change it to public so that we can call it in this contract we want to call it in performUpkeep to make sure that checkUpkeep is performed"
      }
    },
    "version": 1
  },
  "userdoc": {
    "kind": "user",
    "methods": {},
    "version": 1
  },
  "storageLayout": {
    "storage": [
      {
        "astId": 196,
        "contract": "contracts/Lottery.sol:Lottery",
        "label": "s_players",
        "offset": 0,
        "slot": "0",
        "type": "t_array(t_address_payable)dyn_storage"
      },
      {
        "astId": 198,
        "contract": "contracts/Lottery.sol:Lottery",
        "label": "s_recentWinner",
        "offset": 0,
        "slot": "1",
        "type": "t_address"
      },
      {
        "astId": 201,
        "contract": "contracts/Lottery.sol:Lottery",
        "label": "s_lotteryState",
        "offset": 20,
        "slot": "1",
        "type": "t_enum(LotteryState)191"
      },
      {
        "astId": 203,
        "contract": "contracts/Lottery.sol:Lottery",
        "label": "s_lastTimeStamp",
        "offset": 0,
        "slot": "2",
        "type": "t_uint256"
      }
    ],
    "types": {
      "t_address": {
        "encoding": "inplace",
        "label": "address",
        "numberOfBytes": "20"
      },
      "t_address_payable": {
        "encoding": "inplace",
        "label": "address payable",
        "numberOfBytes": "20"
      },
      "t_array(t_address_payable)dyn_storage": {
        "base": "t_address_payable",
        "encoding": "dynamic_array",
        "label": "address payable[]",
        "numberOfBytes": "32"
      },
      "t_enum(LotteryState)191": {
        "encoding": "inplace",
        "label": "enum Lottery.LotteryState",
        "numberOfBytes": "1"
      },
      "t_uint256": {
        "encoding": "inplace",
        "label": "uint256",
        "numberOfBytes": "32"
      }
    }
  }
}